{
    "_format": "hh-sol-artifact-1",
    "contractName": "Transactions",
    "sourceName": "contracts/Transactions.sol",
    "abi": [
        {
            "anonymous": false,
            "inputs": [
                {
                    "indexed": false,
                    "internalType": "address",
                    "name": "from",
                    "type": "address"
                },
                {
                    "indexed": false,
                    "internalType": "address",
                    "name": "reciever",
                    "type": "address"
                },
                {
                    "indexed": false,
                    "internalType": "uint256",
                    "name": "amount",
                    "type": "uint256"
                },
                {
                    "indexed": false,
                    "internalType": "uint256",
                    "name": "timestamp",
                    "type": "uint256"
                }
            ],
            "name": "Transfar",
            "type": "event"
        },
        {
            "inputs": [
                {
                    "internalType": "address payable",
                    "name": "reciever",
                    "type": "address"
                },
                {
                    "internalType": "uint256",
                    "name": "amount",
                    "type": "uint256"
                }
            ],
            "name": "addToBlockChain",
            "outputs": [],
            "stateMutability": "nonpayable",
            "type": "function"
        },
        {
            "inputs": [],
            "name": "getAllTransactions",
            "outputs": [
                {
                    "components": [
                        {
                            "internalType": "address",
                            "name": "from",
                            "type": "address"
                        },
                        {
                            "internalType": "address",
                            "name": "reciever",
                            "type": "address"
                        },
                        {
                            "internalType": "uint256",
                            "name": "amount",
                            "type": "uint256"
                        },
                        {
                            "internalType": "uint256",
                            "name": "timestamp",
                            "type": "uint256"
                        }
                    ],
                    "internalType": "struct Transactions.TransfarStruct[]",
                    "name": "",
                    "type": "tuple[]"
                }
            ],
            "stateMutability": "view",
            "type": "function"
        },
        {
            "inputs": [],
            "name": "getTheTransactionCount",
            "outputs": [
                {
                    "internalType": "uint256",
                    "name": "",
                    "type": "uint256"
                }
            ],
            "stateMutability": "view",
            "type": "function"
        }
    ],
    "bytecode": "0x608060405234801561001057600080fd5b506105c2806100206000396000f3fe608060405234801561001057600080fd5b50600436106100415760003560e01c806327506f531461004657806334089e95146100645780634434bd1114610082575b600080fd5b61004e61009e565b60405161005b91906103df565b60405180910390f35b61006c6100a3565b6040516100799190610401565b60405180910390f35b61009c60048036038101906100979190610248565b6100a8565b005b606090565b600090565b60016000808282546100ba9190610455565b92505081905550600160405180608001604052803373ffffffffffffffffffffffffffffffffffffffff1681526020018473ffffffffffffffffffffffffffffffffffffffff16815260200183815260200142815250908060018154018082558091505060019003906000526020600020906004020160009091909190915060008201518160000160006101000a81548173ffffffffffffffffffffffffffffffffffffffff021916908373ffffffffffffffffffffffffffffffffffffffff16021790555060208201518160010160006101000a81548173ffffffffffffffffffffffffffffffffffffffff021916908373ffffffffffffffffffffffffffffffffffffffff160217905550604082015181600201556060820151816003015550507ffe2bde8cfb25a37eeb00c1bb2ff9c15d224aad003daabcf84b8294861257c20033838342604051610212949392919061039a565b60405180910390a15050565b60008135905061022d8161055e565b92915050565b60008135905061024281610575565b92915050565b6000806040838503121561025b57600080fd5b60006102698582860161021e565b925050602061027a85828601610233565b9150509250929050565b60006102908383610327565b60808301905092915050565b6102a5816104f9565b82525050565b6102b4816104ab565b82525050565b6102c3816104ab565b82525050565b60006102d48261042c565b6102de8185610444565b93506102e98361041c565b8060005b8381101561031a5781516103018882610284565b975061030c83610437565b9250506001810190506102ed565b5085935050505092915050565b60808201600082015161033d60008501826102ab565b50602082015161035060208501826102ab565b506040820151610363604085018261037c565b506060820151610376606085018261037c565b50505050565b610385816104ef565b82525050565b610394816104ef565b82525050565b60006080820190506103af60008301876102ba565b6103bc602083018661029c565b6103c9604083018561038b565b6103d6606083018461038b565b95945050505050565b600060208201905081810360008301526103f981846102c9565b905092915050565b6000602082019050610416600083018461038b565b92915050565b6000819050602082019050919050565b600081519050919050565b6000602082019050919050565b600082825260208201905092915050565b6000610460826104ef565b915061046b836104ef565b9250827fffffffffffffffffffffffffffffffffffffffffffffffffffffffffffffffff038211156104a05761049f61052f565b5b828201905092915050565b60006104b6826104cf565b9050919050565b60006104c8826104cf565b9050919050565b600073ffffffffffffffffffffffffffffffffffffffff82169050919050565b6000819050919050565b60006105048261050b565b9050919050565b60006105168261051d565b9050919050565b6000610528826104cf565b9050919050565b7f4e487b7100000000000000000000000000000000000000000000000000000000600052601160045260246000fd5b610567816104bd565b811461057257600080fd5b50565b61057e816104ef565b811461058957600080fd5b5056fea2646970667358221220e3cd22e25348c5b429e6a91b7d098072205800f7cdb63730e67186dff111615964736f6c63430008000033",
    "linkReferences": {},
    "deployedLinkReferences": {}
}